{
  "contractName": "Destroyable",
  "abi": [
    {
      "constant": false,
      "inputs": [],
      "name": "close",
      "outputs": [],
      "payable": false,
      "stateMutability": "nonpayable",
      "type": "function"
    }
  ],
  "bytecode": "0x6080604052336000806101000a81548173ffffffffffffffffffffffffffffffffffffffff021916908373ffffffffffffffffffffffffffffffffffffffff160217905550610199806100536000396000f3fe608060405234801561001057600080fd5b506004361061002b5760003560e01c806343d726d614610030575b600080fd5b61003861003a565b005b6000809054906101000a900473ffffffffffffffffffffffffffffffffffffffff1673ffffffffffffffffffffffffffffffffffffffff163373ffffffffffffffffffffffffffffffffffffffff16146100df576040517f08c379a000000000000000000000000000000000000000000000000000000000815260040180806020018281038252604b81526020018061011a604b913960600191505060405180910390fd5b6000809054906101000a900473ffffffffffffffffffffffffffffffffffffffff1673ffffffffffffffffffffffffffffffffffffffff16fffe596f75206e65656420746f206265206f776e6572206f662074686520636f6e747261637420696e206f7264657220746f2061636365737320746869732066756e6374696f6e616c69747921a265627a7a72315820aa002813078139b9d253924301cebe32879812462ac489ca9d007b0bf4e3b39a64736f6c634300050c0032",
  "source": "import \"./Ownable.sol\";\r\n\r\npragma solidity ^0.5.12;\r\n\r\ncontract Destroyable is Ownable{\r\n\r\n    function close() public onlyOwner {\r\n        selfdestruct(_owner);\r\n    }\r\n}",
  "sourcePath": "C:\\Users\\tkrei\\OneDrive\\Ivan_On_Tech\\Bootcamp\\Solidity\\Assignments\\Angry_Birds_on_the_Block\\contracts\\Destroyable.sol",
  "compiler": {
    "name": "solc",
    "version": "0.5.12+commit.7709ece9.Emscripten.clang"
  },
  "schemaVersion": "3.2.0",
  "updatedAt": "2020-10-13T16:27:06.262Z",
  "devdoc": {
    "methods": {}
  },
  "userdoc": {
    "methods": {}
  }
}